:100000000C94AE030C94F5030C94F5030C94141AA1
:100010000C94F5030C94F5030C94F5030C94F50380
:100020000C94F5030C94F5030C940F2E0C94E32E12
:100030000C9411280C94F5030C94F5030C94F5031F
:100040000C94F5030C94F5030C94F5030C94F50350
:100050000C94F5030C9468280C94F5030C94F503A8
:100060000C94F5030C94F5030C94F5030C94F50330
:100070000C94F5030C94F5030C94F5030C94F50320
:100080000C94F5030C94F5030C94F5030C94F50310
:100090000C94F5030C94F5030C94F5030C94F50300
:1000A0000C94F5030C94F5030C94F50330303000F8
:1000B0003030000151460029003A003B003C003D31
:1000C000003E000251490035001E001F00200021A3
:1000D00000220003514A002B0014001A00080015EA
:1000E00000170004514D00390004001600070009F4
:1000F000000A0005514B00E1001D001B000600191D
:1001000000050006514E00E000E300E2008B002CE9
:10011000002C003F004000410042004300440045E5
:10012000004C00230024002500260027002D002E6F
:10013000002A001C0018000C00120013002F0030D1
:100140000031000B000D000E000F003300340028BA
:10015000004B0011001000360037003800E5005257
:10016000004E002C008A008800E600E40050005198
:10017000004F000100C35CC45C00000000000000F0
:100180000000000100C65CC85CCA5C000000000002
:100190000000000100C75CC95CCB5C0000000000EF
:1001A000000000010000000000000000000000004E
:1001B0000000000100DF5C00000000000000000003
:1001C0000000000100005C000000000000000000D2
:1001D000000000000000000000000000000000001F
:1001E000000000000000000000000000000000000F
:1001F00000000000000000000000000000000000FF
:1002000000000000000000000000000000000000EE
:1002100000000000000000000000000000000000DE
:1002200000000000000000000000000000000000CE
:1002300000000001000000000000000000000000BD
:1002400000000001000000000000000000000000AD
:10025000000000010000000000000000000000009D
:10026000000000010000000000000000000000008D
:10027000000000010000000000000000000000007D
:10028000000000010000000000000000000000006D
:10029000000000000000000000000000000000005E
:1002A000000000000000000000000000000000004E
:1002B000000000000000000000000000000000003E
:1002C000000000000000000000000000000000002E
:1002D000000000000000000000000000000000001E
:1002E000000000000000000000000000000000000E
:1002F00000000000000000000000002A2B28000081
:1003000000000000000000000000000000002900C4
:100310000000002C1E3420212224342627252E36CE
:100320002D3738271E1F202122232425263333363C
:100330002E37381F0405060708090A0B0C0D0E0F8F
:10034000101112131415161718191A1B1C1D2F3112
:1003500030232D350405060708090A0B0C0D0E0F76
:10036000101112131415161718191A1B1C1D2F31F2
:1003700030354C00000000000000000000000000CC
:10038000000000000000000000000000000000006D
:10039000000000000000007E0F00D4FFFFFFC70038
:1003A0000000787F3F1F643214643214783C1E1EB4
:1003B000140A052223252628292A2C2D2F303233F2
:1003C0003536383A3B3D3E4042434547494A4C4E1C
:1003D0005051535557595A5C5E6062646668696B48
:1003E0006D6F71737577797B7D7F81838587898A4E
:1003F0008C8E90929496989A9C9E9FA1A3A5A7A854
:10040000AAACAEAFB1B3B4B6B8B9BBBCBEBFC1C283
:10041000C3C5C6C7C9CACBCCCDCED0D1D2D2D3D416
:10042000D5D6D7D7D8D9D9DADADBDBDBDCDCDCDC34
:10043000DCDDDDDDDDDCDCDCDCDCDBDBDBDADAD902
:10044000D9D8D7D7D6D5D4D3D2D2D1D0CECDCCCB84
:10045000CAC9C7C6C5C3C2C1BFBEBCBBB9B8B6B4A2
:10046000B3B1AFAEACAAA8A7A5A3A19F9E9C9A9832
:10047000969492908E8C8A89878583817F7D7B7903
:10048000777573716F6D6B6968666462605E5C5AE4
:100490005957555351504E4C4A4947454342403EA7
:1004A0003D3B3A3836353332302F2D2C2A29282639
:1004B000252322FFAA7F554000010101010101010E
:1004C0000101020202020202020202030303030309
:1004D00003030304040404040404050505050506D8
:1004E0000606060607070707070808080809090996
:1004F000090A0A0A0B0B0B0C0C0C0D0D0D0E0E0E3F
:100500000F0F0F10101111111212131314141515CF
:1005100016161717181819191A1A1B1B1C1D1D1E41
:100520001E1F202021222223242425262627282995
:10053000292A2B2C2D2D2E2F3031323233343536C3
:100540003738393A3B3C3D3E3F40414243444546C3
:100550004748494A4C4D4E4F50515354555658599F
:100560005A5B5D5E5F616264656668696B6C6D6F46
:100570007072737577787A7B7D7E808283858788B9
:100580008A8C8E8F91939596989A9C9EA0A2A3A5F3
:10059000A7A9ABADAFB1B3B5B7BABCBEC0C2C4C6F4
:1005A000C9CBCDCFD1D4D6D8DBDDDFE2E4E7E9EBB0
:1005B000EEF0F3F5F8FAFDFF0A0374006500390068
:1005C000360000000C036500330077003200710034
:1005D00000000403090409025B00030100A0FA09FA
:1005E0000400000103010100092111010001224062
:1005F000000705810308000A090401000203000046
:1006000000092111010001222200070582032000B8
:100610000107050303200001090402000103000093
:100620000009211101000122B60007058403200002
:100630000A120110010000000809125146010001D0
:100640000200010660FF0961A1010962150026FF91
:10065000009520750881020963150026FF0095208A
:1006600075089102C005010902A10185020901A1D5
:100670000005091901290815002501950875018152
:10068000020501093009311581257F950275088120
:100690000609381581257F950175088106050C0A24
:1006A00038021581257F950175088106C0C00501B6
:1006B0000980A101850319012AB700150126B70099
:1006C000950175108100C0050C0901A1018504196F
:1006D000012AA002150126A002950175108100C013
:1006E00005010906A1018505050719E029E715009F
:1006F00025019508750181020507190029EF1500EC
:10070000250195F075018102050819012905950556
:1007100075019102950175039101C005010906A1BA
:1007200001050719E029E7150025019508750181E4
:10073000029501750881010507190029FF1500269A
:10074000FF00950675088100050819012905950522
:1007500075019102950175039101C00011241FBE1E
:10076000CFEFDAE0DEBFCDBF04B603FE27C0809135
:100770005B0390915C03A0915D03B0915E038730B1
:10078000904BA740B04BD1F410925B0310925C03E6
:1007900010925D0310925E0314BE84B7877F84BFFE
:1007A0000FB6F894A89580916000886180936000EE
:1007B000109260000FBEE0E0F8E3099511E0A0E0C0
:1007C000B1E0E4E1F3E602C005900D92A03EB1076E
:1007D000D9F723E0A0EEB1E001C01D92AB35B2071E
:1007E000E1F70E94CD2A0C9439310C940000893233
:1007F0002DE5920729F08A329D4559F081E0089550
:10080000FB0182818823D1F380EB90E00E94660691
:10081000F5CFFB018281882389F38CEA90E0F6CF43
:1008200008950895089581E008950C94F7030895BC
:100830000C9417041F93CF93DF9300D000D00F9236
:10084000CDB7DEB749835A836B8330913B028981F0
:100850009A8131111DC06623B9F02223A9F00E94AC
:100860000825182F682F89819A810E94B3246981F5
:100870007A81812F0F900F900F900F900F90DF9142
:10088000CF911F910C9414160E94E024182FEFCFE3
:100890000E94082569817A81EDCFFC01262F4081D5
:1008A00051816281738184810C941A04CF93DF9308
:1008B000EC0160E00E944D04BE01DF91CF910C94E9
:1008C00018048F929F92AF92BF92CF92DF92EF92D5
:1008D000FF920F931F936B017C0181E090E0A0E0F9
:1008E000B0E04C015D0104C0880C991CAA1CBB1C23
:1008F0004A95D2F7B501A4014C015D0104C0880CF2
:10090000991CAA1CBB1C2A95D2F7482959296A2987
:100910007B2904C0880F991FAA1FBB1F0A95D2F715
:100920008A019B010C211D212E213F21041715074F
:100930002607370789F48C299D29AE29BF29BC01D8
:10094000CD011F910F91FF90EF90DF90CF90BF905E
:10095000AF909F908F90089580959095A095B095B9
:100960008C219D21AE21BF21EACF0F93382F262F56
:100970006091B0027091B1028091B2029091B30285
:10098000042F432F0E9461040F910C94F1230E94C5
:10099000EE280E945426811102C00E94F8260C9471
:1009A00072080C94740808950E941D200E94D304BC
:1009B0002FEF84E39CE0215080409040E1F700C09D
:1009C00000000C94D6280F931F93CF93DF93EC0174
:1009D00061E00E944D048C01BE010E94FA1388233D
:1009E00089F1BE01C8010E941504882359F1BE0196
:1009F000C8010E944B17882329F1BE01C8010E943B
:100A00009D178823F9F0BE01C8010E94C0188823F1
:100A1000C9F0BE01C8010E940C13882399F08A8195
:100A2000882339F001158CE5180751F00F3D1C455E
:100A300079F0CE01DF91CF911F910F910C941304A7
:100A40000E94D40480E0DF91CF911F910F9108950F
:100A50000E94F826F7CFDF92EF92FF920F931F9339
:100A6000CF93DF93E82FF0E0ED50FD4FD490282F87
:100A700026952695269530E0F901ED56FC4F049118
:100A8000877010E0082E02C0159507950A94E2F7CA
:100A900001701127F901ED57FC4FE490F12C082E5D
:100AA00002C0F594E7940A94E2F791E0E922FF246A
:100AB000F901ED58FC4FC491D0E002C0D595C7951F
:100AC0008A95E2F7C170DD270115110519F081EE55
:100AD0000E949D1CE114F10419F086EE0E949D1CF9
:100AE0008D2D0E949C1DEF2819F086EE0E942F1D6F
:100AF000012B19F081EE0E942F1DCD2B51F08CE2BD
:100B0000DF91CF911F910F91FF90EF90DF900C94A8
:100B10009C1DDF91CF911F910F91FF90EF90DF907F
:100B20000895EF92FF920F931F93CF93DF93EC0101
:100B3000162F0AE08881882309F454C0813009F017
:100B40004EC08981813099F47E0122E0E20EF11CD1
:100B50008A810E949C1DE7012196812F815050F3CC
:100B6000EFE9FFE03197F1F700C00000F7CF8230E6
:100B700041F47E0182E0E80EF11C8A810E949D1CF6
:100B8000EACF833041F47E01E2E0EE0EF11C8A816F
:100B90000E942F1DE0CF843011F02196DDCF2A81F5
:100BA000229690E080E0AE014F5F5F4F2053330B01
:100BB0002A30310548F0019778F2EFE9FFE03197EC
:100BC000F1F700C00000F7CF089FB001099F700D3A
:100BD0001124C901860F971F2981EA01E4CF0E94E1
:100BE0002B05BACFDF91CF911F910F91FF90EF901E
:100BF000089560E00C949105EF92FF920F931F937C
:100C0000CF93DF938C01F62E8AE0E82EF8018491D1
:100C1000882309F454C0813009F04DC0E8012196C1
:100C2000FE018491813091F42196FE0184910E940D
:100C30009C1D8E010F5F1F4F8F2D815038F3EFE900
:100C4000FFE03197F1F700C00000F7CF823039F4B0
:100C5000E8012296FE0184910E949D1CEACF833018
:100C600039F4E8012296FE0184910E942F1DE1CF04
:100C70008430F9F6E8012296FE01249190E080E0AC
:100C8000FE0131962053330B2A30310548F001978D
:100C900080F2EFE9FFE03197F1F700C00000F7CFF5
:100CA000E89EA001E99E500D1124C901840F951FF3
:100CB0002491EF01E5CF0E942B05E801BACFDF9127
:100CC000CF911F910F91FF90EF90089560E00C94E9
:100CD000FC050C94120481E008950C946B06CF93EC
:100CE000C82F0E9469068C2FCF910C946D0690E05E
:100CF00080E008950895FC01EE0FFF1FED55FC4FB5
:100D0000859194910895CF93DF930E9414160E94C9
:100D10009807EC01811520E5920708F042C0811583
:100D200030E4930708F0BDC0883E910528F5803E69
:100D3000910508F09DC0883A910588F4853A91059F
:100D400008F08FC08130910509F492C0009709F432
:100D50008FC0049708F08CC0D0E0C0E089C08F3B02
:100D6000910508F489C0805C9109C03CD105A0F3CD
:100D70000E947B06EC017CC08115904250F4C115A5
:100D800081E0D80708F074C0CD3ED10528F3D065C6
:100D90006FC0C11590E3D90708F079C0CE019F70EC
:100DA000E7CF811525E5920758F5811534E59307BE
:100DB00008F0A6C0811542E5940750F4C11581E5FD
:100DC000D80708F471C0DC2FCC27C16FD06A50C09F
:100DD000982F969596959E0123703327C115D3457C
:100DE00008F07FC0C1E0D0E002C0CC0FDD1F2A9523
:100DF000E2F720E2929FC0011124C82BD92B6FC0CB
:100E0000C11589E5D807A8F4C11598E5D90708F0F8
:100E10007CC0C11526E5D20708F09ECF8C2F0E941A
:100E20002F08C82FD0E0DC2FCC27CC27DF71D06271
:100E30001FC0C1153AE5D30708F46CC0CE01905627
:100E40008115904208F088CF8D2F8F710E942F0856
:100E500090E0982F882788279F719C012C2BE9010F
:100E6000E6CFC55AD0E0CA59DE4FC881D0E0D06481
:100E7000CE01DF91CF910895C85AD0E0CC0FDD1F8D
:100E8000C85CDE4F0990D881C02DD464F1CFCE016B
:100E90009927D3FF03C0EC01D86CEACFEC01D06CEA
:100EA000E7CFDF70D06AE4CFCE01E4E09695879576
:100EB000EA95E1F783702C2F26952695237090E212
:100EC000299F90011124382B8C2F8370C1E0D0E032
:100ED00002C0CC0FDD1F8A95E2F7C22BD32BDC6852
:100EE000C7CFC1E0D0E002C0CC0FDD1F2A95E2F7EA
:100EF00030E2939FC0011124C82BD92BDA68B8CFF8
:100F0000D82FCC27C46FD06AB3CFDC2FCC27C06FCB
:100F1000D06AAECF8C2F8F700E942F0834E0D69508
:100F2000C7953A95E1F7CF709C2FEC01D069A0CF1F
:100F300082389105B1F1B0F48133910509F475C09F
:100F400048F48932910509F469C08A32910509F49F
:100F500073C008958533910509F459C0893391050B
:100F600001F10895833E9105A9F138F4803E910581
:100F7000F9F0823E910549F10895863E9105A9F167
:100F8000873E9105C9F1843E910519F520914D03E5
:100F900021FF1FC080914C0384FD14C087EE90E0B8
:100FA000089520914C032370A1F080EE90E0089505
:100FB00020914C0320FD47C030914D0330FF09C004
:100FC00024FF44C090E080E004C020914C0322FD47
:100FD000F7CF089520914C0322FD3BC030914D0383
:100FE00030FDE3CF24FFF5CFEDCF20914C0323FF5D
:100FF000F0CF24FDE7CFD2CF20914C0323FD2CC0AE
:1010000030914D0331FFEECF84EE90E008952091B2
:101010004C0325FFDECF89E290E0089520914C0338
:1010200025FFD7CF85E390E0089520914C0326FF5C
:10103000D0CF8AE290E0089520914C0326FFC9CFDB
:1010400081E390E0089589E390E0089583EE90E0D5
:10105000089582EE90E0089586EE90E008959091D4
:101060004C0392FF06C0282F28712830F9F4877F9F
:10107000846093FF06C0282F28712831F1F4877E01
:10108000846120914D0320FF06C0382F387138301D
:10109000D9F4877F816021FF06C0282F287128316D
:1010A000D1F4877E816194FD877E0895282F247175
:1010B0002430F9F68B7F8860DCCF282F247124310F
:1010C00001F78B7E8861DDCF382F3171313019F710
:1010D0008E7F8860E0CF282F2171213121F78E7E0D
:1010E0008861E1CF0C9410040C941104E82FF0E017
:1010F000E35FFC4F80810895089580EA8A95F1F7B7
:10110000089500C008950C947D08F894E82FE295A6
:10111000EF70F0E031A1282F2F7081E090E001C046
:10112000880F2A95EAF7982F9095932391A392A17F
:10113000892B82A37894089508950F931F93CF93DA
:10114000DF930E94280A809100018091000196E0BF
:10115000811190E090931A0386E0891B8093190314
:1011600084E90E94850886E60E94850887E90E9436
:10117000850886EC0E94850884E30E94850885E343
:101180000E948508C9E6D1E001E711E089910E943B
:1011900085080C171D07D1F7E1E0F3E0ADE0B3E0FF
:1011A00011921D9283E0ED30F807D1F786E00E949E
:1011B000D3090E94C704DF91CF911F910F910C9426
:1011C000320AFF920F931F93CF93DF9300D000D08A
:1011D00000D0CDB7DEB70E940A0AF82E60911A033C
:1011E000882309F451C08E010F5F1F4F86E0F8017C
:1011F00011928A95E9F7862F90E0B801835F9C4FA2
:101200000E941319811123C08091E2018F5F8093A6
:10121000E2018630B8F1E0911903F0E0E35FFC4FA2
:10122000D801CE01079611921D92A817B907D9F7D8
:101230000E94D1048F2D26960FB6F894DEBF0FBE04
:10124000CDBFDF91CF911F910F91FF900895109224
:10125000E201A0911903B0E0A35FBC4F9E01295F9A
:101260003F4FF12C4D91F80191918F01491731F0C9
:10127000AD0141505109FA019083F82E021713076E
:1012800089F7D6CFF12CD4CF70E0635F7C4F80918B
:10129000190390E0835F9C4F0E943E190E949C08B6
:1012A000C9CFCF92DF92EF92FF920F931F93CF930C
:1012B000DF9301E711E081E0E82E83E0F82EC0E043
:1012C000CC24C394D12CF80181918F01F894E82F9C
:1012D000E295EF70F0E021A18F70A60102C0440FEB
:1012E000551F8A95E2F7CA01922F982B91A392A1DC
:1012F0008095892382A378940E948108E9E6F1E031
:1013000030E020E0D0E04191A42FA295AF70B0E092
:1013100090968C9190E04F7002C0959587954A9574
:10132000E2F780FD3CC08C2D022E01C0880F0A948C
:10133000EAF7D82B2F5F3F4F2830310521F7F8010E
:10134000319780810E9485080E948308F70180817F
:10135000D81739F1D08381E0C82BFFEFEF1AFF0ACD
:1013600041E00737140709F0AECF60911A0370E02F
:10137000635F7C4F2C2F46E081E093E00E94D4090C
:101380000E94E108C11101C0C82F8C2FDF91CF91BD
:101390001F910F91FF90EF90DF90CF90089580E024
:1013A000C8CF80E0D9CF0895FF920F931F93CF93BA
:1013B000DF93F82E092F162FD72FC42F222349F0A1
:1013C00081E08093E5010E9441289093E40180939D
:1013D000E3018091E5018823A1F08091E3019091E0
:1013E000E4010E945928069760F0EF2DF02FA12FFD
:1013F000BD2FCE0FDF2FD11DEC17FD0741F410924A
:10140000E501DF91CF911F910F91FF900895819198
:101410008D93F2CF8091E601811111C08091D800A7
:1014200080618093D8008AE18A95F1F700C090919D
:10143000D900892F817090FF82E08093E60181E0DE
:101440009091E601913009F080E008950C940A0A29
:101450000E94260A809300010E940A0A81110C94BE
:10146000EA1808950E940A0A811102C00C94F0182B
:1014700008958091ED0180FF12C06091060185E022
:10148000689FB001112475956795759567956038CB
:101490007105A8F561157105A1F1862F089581FFE9
:1014A00009C06091060185E0689FB001112475951F
:1014B0006795EDCF6091060182FD0AC08091EC0135
:1014C0008823D1F09091050160910601891728F0D9
:1014D00085E0689FB0011124DACF869FB001112406
:1014E00085E0869F9001879F300D1124692F70E061
:1014F000C9010E94B730CBCF65E070E0CECF8FE757
:10150000089581E008958091ED0180FF0CC0609105
:10151000020170E075956795759567956115710580
:1015200049F1862F089581FF06C06091020170E0A5
:1015300075956795F3CF6091020182FD0BC0909184
:10154000EB019923A1F060910101809102019617AE
:1015500038F0682F70E06038710500F38FE7089568
:10156000899FC001112470E00E94B730F4CF61E080
:1015700070E0D7CF81E008958D3E31F40E94390AA2
:1015800081958093F10108958E3E19F40E94390AE5
:10159000F8CF8F3E31F40E94390A81958093F00193
:1015A0000895803F19F40E94390AF8CF893F29F441
:1015B0000E94830A8093F20108958A3F21F40E94D9
:1015C000830A8195F7CF8B3F31F40E94830A81957E
:1015D0008093F30108958C3F19F40E94830AF8CF99
:1015E0009FE0980F983070F4815F990B21E030E014
:1015F00001C0220F8A95EAF78091EF01822B809338
:10160000EF0108958D3F31F48091ED018160809369
:10161000ED0108958E3F21F48091ED018260F7CFB6
:101620008F3FB9F78091ED018460F1CF4091F001D7
:101630008D3E59F48091F10187FF0DC01092F101A8
:1016400041110BC01092EC0108C08E3E81F48091D4
:10165000F10118169CF3442381F08091F2019091DE
:10166000F301892B09F05AC01092EB0108958F3EC7
:1016700049F447FFF0CF1092F0018091F101811100
:10168000ECCFE0CF803F19F41416ACF3E4CF909187
:10169000F201893F29F41916F4F61092F201DBCF1A
:1016A0008A3F19F497FFD7CFF8CF9091F3018B3F82
:1016B00029F497FFD0CF1092F301CDCF8C3F19F4CE
:1016C0001916CCF3C8CF9FE0980F983090F4815F43
:1016D000990B21E030E0B90102C0660F771F8A95AF
:1016E000E2F7CB0180959091EF0189238093EF0180
:1016F000B2CF8D3F31F48091ED018E7F8093ED016B
:10170000AACF8E3F21F48091ED018D7FF7CF8F3FDF
:1017100009F0A1CF8091ED018B7FF0CF08950E9459
:1017200041289C019091F0018091F101982B21F0CA
:101730003093EA012093E9019091F2018091F30145
:10174000982B21F03093E8012093E7018EEE91E091
:101750000C944C1BEF92FF920F931F93CF93DF9348
:1017600000D000D000D0CDB7DEB786E0EEEEF1E0DD
:10177000DE01119601900D928A95E1F7E090F0015B
:10178000F090F1010091F2011091F3011092F0013B
:101790001092F1011092F2011092F3018E2D8F2917
:1017A00091F08091E9019091EA010E945928AC01E1
:1017B0009091EC01992309F43FC0809107018417AF
:1017C000150608F447C0802F812B91F08091E70126
:1017D0009091E8010E945928AC019091EB01992366
:1017E00009F477C0809103018417150608F47FC0BF
:1017F0008091F0019091F101892B9091F201892B58
:101800009091F301892B11F00E948F0B86E0FE016D
:101810003196AEEEB1E001900D928A95E1F72696F1
:101820000FB6F894DEBF0FBECDBFDF91CF911F91F1
:101830000F91FF90EF900895209108018AE0289F72
:10184000900111242417350708F0BDCF9F5F9093B6
:10185000EC0102C09F3FD1F7EE2059F00E94390AF7
:101860009FEF1E140CF491E0899F802D112480932A
:10187000F001FF2059F00E94390A9FEF1F140CF469
:1018800091E0899F802D11248093F1013091F00126
:10189000332309F498CF2091F101222309F493CF47
:1018A00045EB3403C0011124992359F09093F001C2
:1018B00045EB240390011124332339F03093F101D7
:1018C00082CF81E08093F001F3CF81E08093F1013A
:1018D0007ACF209104018AE0289F900111242417D7
:1018E000350708F085CF9F5F9093EB0102C09F3FC3
:1018F000D1F7002359F00E94830A9FEF10160CF4D1
:1019000091E0899F802D11248093F201112359F0D9
:101910000E94830A9FEF11160CF491E0899F802D9D
:1019200011248093F3013091F201332309F460CF45
:101930002091F301222309F45BCF45EB3403C0016E
:101940001124992359F09093F20145EB240390015F
:101950001124332339F03093F3014ACF81E080938F
:10196000F201F3CF81E08093F30142CF86E0EEEE07
:10197000F1E0DF011D928A95E9F71092EC011092D7
:10198000EB011092ED010895EF92FF920F931F93D8
:10199000CF93DF93EB01E82FD11110C0442321F046
:1019A000F0E0E854FB4FE4916E2F7E2F8E2FDF91F5
:1019B000CF911F910F91FF90EF9008950D2F10E0A0
:1019C000282F30E0442329F028543B4FF90124917B
:1019D00030E0F6E0CF9FC0011124EFEFF0E0BF014F
:1019E0000E94A330AB018C2F90E0880F991FA5E5D2
:1019F000A49FB001A59F700D1124861B970B982FF3
:101A0000990F980FBF01601B710B629FD001639FFC
:101A1000B00D729FB00D11248B2F9D9FB00111242A
:101A2000672F7727EF01C61BD70BBE01629FE0012E
:101A3000639FD00D729FD00D11247F01E91AF10828
:101A4000E09EB001E19E700DF09E700D1124672F95
:101A50007727E61BF70BE29F8001E39F100DF29FB3
:101A6000100D1124E12F722F4230510599F048F4E6
:101A70004115510569F04130510581F0EB2F8D2F53
:101A800007C04430510569F080F046305105B1F788
:101A90006E2F8DCFE22F7B2F812FFACFE22F7D2F5C
:101AA000F7CFEB2F822F712FF3CF7B2F822FED2FCC
:101AB000EFCF41E00C94C40C08950C94590DCF93D2
:101AC000DF93762FE901682F842F0E945D0D7983C3
:101AD00068838A83DF91CF91089580911B03982FAB
:101AE0009E7F29F48170826080931B030895843463
:101AF000E8F381708264F8CF88E090E00C94F930CC
:101B0000CF92DF92EF92FF926B017C010E946D0DEC
:101B1000B701A60188E090E0FF90EF90DF90CF90B2
:101B20000C94173160911B0370911C0380911D036D
:101B300090911E030C94800DEBE1F3E083E0808331
:101B400011828FEF828383831482A2E0B2E0129627
:101B50008C911297836012968C936081718182813F
:101B600093810C94800D80911B0380FF02C08695A9
:101B7000089580E0089590911F03933018F49F5FBB
:101B800090931F03882351F060911B0370911C03F5
:101B900080911D0390911E030C94800D089581E0A7
:101BA0000C94BB0D90911F03992319F091509093C1
:101BB0001F03882351F060911B0370911C038091D7
:101BC0001D0390911E030C94800D089581E00C94E8
:101BD000D20D80911F03089580931F03662351F057
:101BE00060911B0370911C0380911D0390911E0353
:101BF0000C94800D089560E00C94EC0D80911C0312
:101C0000089580911D03089580911E03089570E04A
:101C10000C94771360910C0180911B0380FF0AC024
:101C200080910B0123E0829FC0011124805E9C4FB4
:101C30000C94070E80910D0190910E0123E0829F7C
:101C4000F0011124E05EFC4F891750F711821082D9
:101C500012828F5F3396F8CF90911B0390FF14C0D0
:101C600090910D0120910E0133E0939FF00111241A
:101C7000E05EFC4F921710F00C940A0E8183608393
:101C800042839F5F3396F6CF0895CF93DF9300D0C2
:101C90000F92CDB7DEB790911B0390FF0AC09E0153
:101CA0002F5F3F4F0E945F0D4B8169818A810E94A7
:101CB0002C0E0F900F900F90DF91CF910895CF933E
:101CC000DF93EC01EC81F0E0ED54FC4F4491EBE14B
:101CD000F3E0628181810E94450E8C818F5F8C834D
:101CE000DF91CF910895CF93DF93EC01EBE1F3E027
:101CF000438162818C810E94450E8C818F5F8C8331
:101D0000DF91CF910895AF92BF92CF92DF92EF9281
:101D1000FF920F931F93CF93DF9300D00F92CDB715
:101D2000DEB7182FF62E042FE22E90911B0390FFA2
:101D30003AC0E92FE695AE2FB0E0A358BE4F8C9184
:101D4000809302029E7F9230E1F59E012F5F3F4F0C
:101D5000812F0E945F0D4B8169818A810E942C0E28
:101D600080911C03811308C080911D038F1104C052
:101D700080911E03801729F0809104028260809375
:101D8000040210931C03F0921D0300931E03EE2027
:101D900051F060911B0370911C0380911D03909181
:101DA0001E030E94800D0F900F900F90DF91CF9136
:101DB0001F910F91FF90EF90DF90CF90BF90AF9069
:101DC0000895823019F400911E03CACF863019F4A9
:101DD00010911C03C5CF8930D9F3883109F6E85139
:101DE0008E2F8170D82EE695F0E0ED54FB4FA59034
:101DF000B490C12CBB2460910F01C61618F00E944C
:101E00000A0EAECF2C2D30E0A29EC001A39E900DF5
:101E1000B29E900D112470E00E94A330812FD1104A
:101E200013C0860F40910D01420F532F511D9A018F
:101E3000220F331F240F351F205E3C4F402F6F2D84
:101E40000E945F0DC394D7CF861BECCFEBE1F3E08C
:101E50009181282F4381628188E0890F0C94830E41
:101E600081E00C94260FEBE1F3E09181282F438170
:101E7000628188EF890F0C94830E81E00C94330FFC
:101E8000EBE1F3E0628128E0620F08F46FEF282FA6
:101E9000438181810C94830E81E00C94400FEBE12F
:101EA000F3E0628128E0621B08F460E0282F4381A0
:101EB00081810C94830E81E00C944F0FEBE1F3E0F1
:101EC000438128E0420F08F44FEF282F628181817F
:101ED0000C94830E81E00C945E0FEBE1F3E0438100
:101EE00028E0421B08F440E0282F628181810C9495
:101EF000830E81E00C946D0F20E00C94830EEF9222
:101F0000FF921F93CF93DF93EC0110E0EE24EA944D
:101F1000F12C60910F01161770F00E940A0E9A8141
:101F20008C8190FF27C08F5F8C83DF91CF911F91B1
:101F3000FF90EF90089520910D01422F410F5527FA
:101F4000551FCA019A01220F331F280F391F205E27
:101F50003C4F70E0C7010E94B730962F8C814091B2
:101F60001E0360911D03199F800D11240E945F0DB7
:101F70001F5FCFCF8150D8CF8F929F92AF92BF92E9
:101F8000CF92DF92EF92FF920F931F93CF93DF9345
:101F9000EC018A81BB24BA9480FD02C0BB24B394B7
:101FA0008C8181110AC081E0B8122AC080910F0192
:101FB00081508093F50181E08C83A12C4CE0942E1C
:101FC00080910F01A816F8F00E940A0E8091F50189
:101FD00091E0B91261C081115AC080910F01815006
:101FE0008093F5011C82DF91CF911F910F91FF909B
:101FF000EF90DF90CF90BF90AF909F908F9008951B
:102000001092F501D8CF00910D01CA2CD12C0C0DE6
:102010001D2D111DC801880F991F080F191F005E83
:102020001C4FF80111821082128234E0E32EF12C51
:10203000812C8091F501880D8D301CF1692D0E9455
:102040009530892F082E000C990BC816D90691F4EB
:1020500080911E038E9DA0018F9D500D11245595DA
:10206000479555954795980160911D0380911C03F4
:102070000E945F0D8B0CF1E0EF1AF108D1F6A394EA
:102080009FCF87FFDFCF90910F01890FDBCF81506A
:102090008093F501BC82A7CF90E0019660910F017B
:1020A00070E00E94B7308093F5018C839CCFEF9253
:1020B000FF920F931F93CF93DF93EC018C818111DB
:1020C00009C081E08C831092F40192E090930A01A0
:1020D0008093090180910D0190910E0123E0829F70
:1020E000F0011124E05EFC4F891768F110E003E075
:1020F00060910F01161768F10E940A0E8091090184
:102100002091F401280F2093F40190910A01980F77
:1021100090930A01191654F4022E000C330B4091CF
:102120000F014150550B2417350734F081958093EA
:102130000901813009F41C82DF91CF911F910F9129
:10214000FF90EF9008951182108212828F5F339674
:10215000CBCFE12EF12C70E0C7010E94B730209167
:102160000D01820F482F50E02091F401022E000C47
:10217000330BE216F306BCF020910A01022E000C8C
:10218000330B2E153F057CF0809F90011124205EBB
:102190003C4F40911E0360911D0380911C030E94DF
:1021A0005F0D1F5FA5CFFA01EE0FFF1FE40FF51FB4
:1021B000E05EFC4F118210821282F3CF8091040204
:1021C000089510920402089525E0EBE1F3E0DC01AC
:1021D00001900D922A95E1F72091020230910302BD
:1021E00040910402FC012583368347830895E2E091
:1021F000F2E011828281846082830895EBE1F3E052
:1022000080818E7F80830E94F710E2E0F2E082817D
:10221000816082832FEF80E792E0215080409040E0
:10222000E1F700C000000C940A0E0E94F7108091A4
:10223000000281110AC081E08093000280911B039B
:1022400081708093FF010C94FE100895EBE1F3E0A0
:1022500080818E7F808360817181828193810E94E1
:10226000800D0E94F710E2E0F2E0828181608283BB
:102270002FEF80E792E0215080409040E1F700C0CE
:1022800000000C940A0E60911B03669570E04BE011
:1022900050E080E191E00E94E430892B19F481E064
:1022A000809303020E94CD289093FA018093F90154
:1022B00080910402846080930402089590911B032E
:1022C00090FF3AC0917081112DC0926090931B03D2
:1022D00080910402816080930402662351F0609132
:1022E0001B0370911C0380911D0390911E030E949B
:1022F000800D60911B03669570E04BE050E080E13B
:1023000091E00E94E430892BA1F00E94F71081E057
:102310008093FC0140911E0360911D0380911C037A
:102320000C947C0F823210F09264D0CF880F982BDF
:10233000CDCF0E944311EBCF0895682F90911B03DE
:10234000969581E0890F823208F081E00C945E114D
:1023500081E00C949D11682F90911B0396958FEF4F
:10236000890F09F481E20C945E1181E00C94AB11A9
:1023700061E00C945E11EBE1F3E080818160808389
:1023800086950C94B81180911B0380FD0C94261146
:102390000C94BB1160E00C945E11809101028111DC
:1023A00033C00E945426811104C00E94F8260E9466
:1023B0009C0D0E947C0D60931B0370931C03809303
:1023C0001D0390931E038091040283608093040296
:1023D0006E7F61F40E949C0D0E947C0D60931B0334
:1023E00070931C0380931D0390931E030E946D0D38
:1023F0000E94F71080911B0380FF03C086950E9406
:10240000CA1181E0809301020895EBE1F3E080813D
:102410008160808386950C94CA111092000280918D
:10242000FF0181110E9405120C9443111F93CF9359
:10243000DF93EC01162F8F8180FF0CC0888180FF15
:1024400024C080911B03816080931B038881869543
:102450000E945E118F8181FF06C0212F4B816A810E
:1024600089810E94830E8F8182FF05C08E8188231F
:1024700079F00E9443118F8183FF03C081E0809334
:10248000FC01DF91CF911F9108950E94FE10E2CFD1
:102490000E94F710F0CFEF92FF920F931F93CF930C
:1024A000DF9380910302882309F462C080910202C5
:1024B000E0911B03E695E81BE093FB01823009F0F5
:1024C0005EC0F0E0E155FC4FE491CE2FD0E00FE587
:1024D0001EE08091FC01882361F01092FC010E94B3
:1024E000CD289093FA018093F9011092FE01109289
:1024F000FD010E94CD28E091F901F091FA019C01C3
:102500002E1B3F0B2F3F3F4798F52091F8012223C8
:10251000B1F01092F8012091F6013091F701821B81
:10252000930B8F3F9F4758F4205D3A483093F70153
:102530002093F60180910402886080930402E09069
:10254000FD01F090FE01EC0FFD1FF093FA01E09306
:10255000F90189EF91E0F80109958091FD019091D1
:10256000FE01892B29F4EF2819F081E08093F8010E
:10257000DF91CF911F910F91FF90EF9008958630DA
:1025800049F4F0E0E455FC4FE491CE2FD0E003E7AE
:102590001EE09FCF893051F4E695F0E0E755FC4FFF
:1025A000E491CE2FD0E00FE71FE093CF8F3051F4AE
:1025B000E695F0E0EA55FC4FE491CE2FD0E00CEB2D
:1025C0001FE087CFC0EDD7E00CE51DE0853109F0B5
:1025D00080CFF0E0ED55FC4FE491CE2FD0E007E541
:1025E00010E177CFFA01811101C0FB010994CF936B
:1025F000DF93C82FD62F0E94B30D8C1740F00E9496
:10260000B30D8D1720F4DF91CF910C94A8118C2F6E
:10261000DF91CF910C94B8111F93CF93DF93EC010E
:10262000FB011281111110C00E949D258272FE01D2
:10263000E35CFC45E431F10508F057C0E55CFE4C75
:102640000C94CB300E94C311812FDF91CF911F9149
:10265000089545EB51E168EA71E10E94F212F4CF6E
:1026600048EA51E165EB71E1F8CF4DE35FE060E3EB
:102670007FE0F3CF40E35FE06DE37FE0EECF4BE53B
:102680005FE06CE47FE0E9CF4CE45FE06BE57FE086
:10269000E4CF49E75FE06AE67FE0DFCF4AE65FE04C
:1026A00069E77FE0DACF46EE5DE06FEC7DE0D5CF05
:1026B0004FEC5DE066EE7DE0D0CF81E00E94B81186
:1026C000C3CF65E082E00E94F712BECF68E086E0EB
:1026D000FACF6EE089E0F7CF64E18FE0F4CF67E1F5
:1026E00085E1F1CF61E288E1EECF11E0ADCF539A01
:1026F0004BB1477F5BB15860EFB7F8949B01220F55
:10270000331F260F371F280F391F2817390741F4A9
:10271000EFBF8FE594E00197F1F700C00000089546
:10272000DC016D91CD0178E05BB9000000C067FF6E
:102730004BB9660F000000C000C000C04BB900C01C
:102740007A9591F7E2CF82E290E00E94F1308132F7
:1027500089F483E290E00E94F130843059F484E2FD
:1027600090E00E94F13091E0843209F090E0892FEE
:102770008170089580E0FCCFCF93C82F6FEF811157
:1027800061E282E290E00E9405316FEFC11164E0E6
:1027900083E290E00E9405316FEFC11164E284E2B0
:1027A00090E0CF910C94053180E00E94BC130C9412
:1027B0004E26089585E290E00E94F130682F70E087
:1027C00090E080E0089585E290E00C9405310E944D
:1027D000D9130E94A31381110CC060E070E0CB01FB
:1027E0000E94E3130E948C150E94781681E00C94DD
:1027F000BC130895CF93FB01C281CC2309F19C0146
:1028000022513F452031310520F582510E94881622
:10281000C0E08C2FCF91089581E00E94172443E0FF
:1028200062E081E00E94B504F3CF81E00E94382489
:1028300043E062E081E00E94B504EBCF82E0F6CF96
:102840008031FFE59F0789F381319F45B9F3C1E0EE
:10285000E0CF8031EFE59E07F9F281319F45C9F65F
:1028600082E0DBCF2FEFFC0120830895CF93DF932D
:10287000EC0188818138A9F028F4803871F0DF916B
:10288000CF910895823881F08338C9F70E94FE0DF8
:1028900089830E94010E8A83F2CF0E94040E8983ED
:1028A000EECF0E94B30DFBCF0E94E90DF8CFCF937E
:1028B000DF93EC0188818138E1F028F4803869F0F9
:1028C000DF91CF910895823811F18338C9F70E94C2
:1028D000040E482F6A81898108C0D9810E94010EA7
:1028E000C82F0E94FE0D4D2F6C2FDF91CF910C94BD
:1028F0007C0F89810E94CA118981811104C0DF91F6
:10290000CF910C94FE10DF91CF910C940512898128
:10291000DF91CF910C94FB0DEF92FF920F931F93D9
:10292000CF93DF93EC01062FDC01ED91CD01E15057
:10293000E33108F0ADC0F0E0E15BFE4C0C94CB302D
:10294000198289E08A83602FCE01DF91CF911F9198
:102950000F91FF90EF900C94C2298981823069F029
:10296000833071F08130D9F40E944D280E94D1301B
:102970006A837B838C839D83E6CF0E94DA13F6CF34
:102980007E01B2E0EB0EF11C10E0812F0E94760870
:10299000F70181937F011F5F1C30B9F7D4CF602FFF
:1029A000CE010E943214CFCF89818230C1F76A8173
:1029B0007B818C819D810E94D1300E94E313C3CF23
:1029C0004B816A8189810E945E1598278927982703
:1029D0009D838C83B8CF2C813D81322723273227DA
:1029E0004B816A8189810E947715ADCF0E948C1539
:1029F000AACF0E945714A7CF0E943614A4CF0E94DA
:102A0000920DA1CF0E94211689839DCF0E9423168B
:102A10009827892798279A83898395CF6B8170E0BF
:102A200089819A81AE014C5F5F4F9827892798274B
:102A30000E94261688CF6B8170E089819A81AE0151
:102A40004C5F5F4F9827892798270E944D167BCFB0
:102A50000E94781678CF0E944B15D6CF6B8170E01C
:102A600089819A81AE014C5F5F4F9827892798270B
:102A70000E94C41568CF6B8170E089819A81AE0194
:102A80004C5F5F4F9827892798270E94EA155BCFF4
:102A90008FEF888358CF83E0089590E1699FB0015C
:102AA000112450E0440F551F640F751F90EC899F4F
:102AB000600D711D1124CB01869608950F931F930D
:102AC000CF93DF930E944D158C010E94F130C82FE7
:102AD000D0E0DC2FCC27C80101960E94F1309E0186
:102AE000282BC901DF91CF911F910F9108950F936A
:102AF0001F93CF93DF93122F032F0E944D15EC01EC
:102B0000602F0E940531612FCE010196DF91CF9198
:102B10001F910F910C940531AF92BF92CF92DF922B
:102B2000EF92FF921F93CF93DF9383EBC82E80E049
:102B3000D82ED0E07601C0E014C0F5012591349183
:102B4000412F6C2F8D2F0E94771582E0A80EB11CAB
:102B50001F5F183091F780E1E80EF11CCF5FCC3099
:102B600019F0570110E0E9CFDF5F80ECC80ED11CEF
:102B7000D33001F7DF91CF911F91FF90EF90DF905D
:102B8000CF90BF90AF900895EF92FF920F931F9355
:102B9000CF93DF93EC018A017C01E60EF71ECE0194
:102BA0008696CE15DF0539F4DF91CF911F910F91F5
:102BB000FF90EF900895C03422E0D20740F40E94C5
:102BC000F130F80180830F5F1F4F2196E8CFF801A5
:102BD0001082F9CFCF92DF92EF92FF920F931F9363
:102BE000CF93DF937C016A018C01060F171FEC0164
:102BF000CE018696C017D10749F4DF91CF911F917E
:102C00000F91FF90EF90DF90CF900895C03422E0B5
:102C1000D20740F4FE01EE19FF09EC0DFD1D6081A5
:102C20000E9405312196E4CF462F833038F47C3062
:102C300028F4683018F4672F0C945E1590E080E05B
:102C4000089580E108958AE991E00895EF92FF9256
:102C50000F931F93CF93DF93EC018A017C01E60E63
:102C6000F71ECE018A599D4FCE15DF0539F4DF914D
:102C7000CF911F910F91FF90EF900895CA3921E0F5
:102C8000D20740F40E94F130F80180830F5F1F4F9C
:102C90002196E7CFF8011082F9CFCF92DF92EF9221
:102CA000FF920F931F93CF93DF937C016A018C01F6
:102CB000060F171FEC01CE018A599D4FC017D1078F
:102CC00049F4DF91CF911F910F91FF90EF90DF902A
:102CD000CF900895CA3921E0D20740F4FE01EE19E1
:102CE000FF09EC0DFD1D60810E9405312196E3CFA7
:102CF000CF93DF93C6E6D2E060E0CE010E940531BB
:102D00002196C11584E0D807B9F7DF91CF910895D6
:102D1000DF92EF92FF920F931F93CF93DF9300D038
:102D200000D0CDB7DEB7F82E8FE08F1540F08FEFD3
:102D300093E00E94F13006E612E08823C1F00F9084
:102D40000F900F900F90DF91CF911F910F91FF90F7
:102D5000EF90DF900895011584E0180781F3C80112
:102D60000E94F130811101C0FA940F5F1F4FF110E2
:102D7000F2CF19821A821B821C82DD24D39478013F
:102D80008FEFE81AF80AC8010E94F13089831A828D
:102D90008823A9F29FEF980F933078F48A83D98221
:102DA0000E5F1F4FC7010E94F1308B83882339F2D9
:102DB000CE0101960E94F905E2CF8701F9CF0F936A
:102DC0001F93CF93DF93C42FD22FFC0182818823DE
:102DD000C9F0409307020E94412890930602809315
:102DE000050280E28C0F883008F050C0C77081E087
:102DF00001C0880FCA95EAF7DF91CF911F910F911B
:102E00000C94A41D10910702141335C08091050283
:102E1000909106020E945928883C910560F5C0E215
:102E2000CD0F1D17B9F080E2810F883040F4177084
:102E300081E001C0880F1A95EAF70E94AB1DC830E7
:102E400048F481E09D2F977001C0880F9A95EAF7AA
:102E50000E94A41D802F0E949C1DC830B8F4D7701A
:102E600081E001C0880FDA95EAF7DF91CF911F91D9
:102E70000F910C94AB1D80E28C0F883038F4C77032
:102E800081E001C0880FCA95EAF7EFCFDF91CF91BB
:102E90001F910F9108950F939C01CB01243F4CE5A6
:102EA000340759F1A8F4293DFCE53F0701F12A3D1B
:102EB0004CE53407D1F1283D3C4591F406E221EE82
:102EC00041EE68ED7CE50E94DF1680E00F910895E9
:102ED000263FFCE53F07E9F0B0F0273F3C45F9F01D
:102EE000FC018281882339F110920702EFCF07E2BB
:102EF00025EE45EE69ED7CE5E6CF06E221EE40EEFB
:102F000064EF7CE5E0CF07E225EE44EE65EF7CE57B
:102F1000DACF06E221EE42EE66EF7CE5D4CF07E29F
:102F200025EE46EE67EF7CE5CECF08E221E045EEE8
:102F30006AED7CE5C8CF81E0C9CFCF93DF93EC0188
:102F4000FB018281882309F419C1C230FCE5DF0747
:102F5000C0F1C6319CE5D90730F09E012B5F3C459E
:102F60002930310570F50E94672690934D038093B8
:102F70004C03C031ECE5DE0709F4CFC008F05BC0BC
:102F8000C8308CE5D80709F4B6C088F5C430ECE544
:102F9000DE0709F4A8C0C0F4C2308CE5D80709F4F4
:102FA0009CC080914C038260C330DC4509F498C01A
:102FB00080914C0390914D030E9475260E941D2024
:102FC00080E0DF91CF91089580914C038061C630FD
:102FD000ECE5DE0709F484C080914C038860C730BB
:102FE000DC4508F47DC080914C03806279C0CC3010
:102FF0008CE5D80709F489C070F480914C038C608B
:10300000CA30ECE5DE0709F46BC008F478C08091A3
:103010004C038E7F65C0CE308CE5D80709F479C0AB
:1030200080914C038B7FCF30DC4508F459C08091F0
:103030004C038F7E55C0CC3FECE5DE0709F457C04A
:1030400030F5C3318CE5D80709F46FC078F4C1318D
:10305000ECE5DE0709F465C0C231DC4509F0A8CF14
:103060000E941D2080914C038F773AC0C5318CE5BA
:10307000D80709F462C008F476C080914D038160DE
:10308000CB3FDC4509F094CF80934D0391CFC11520
:10309000FDE5DF0709F44DC088F480914D038D7F75
:1030A000CE3F9CE5D90781F380914D038E7FCF3FC2
:1030B000DC4550F380914D038360E6CFC230FDE5DF
:1030C000DF0709F459C008F444C080E0C330DD458F
:1030D00009F06ECF0E94FA266BCF80914C0381607D
:1030E00080934C0365CF80914C038460F9CF80912D
:1030F0004D038260C9CF80914C038064F1CF0E9460
:103100001D2080914C038068EBCF80914C038D7F14
:10311000E7CF80914C03877FE3CF80914C038F7D75
:10312000DFCF80914C038F7BDBCF80914C03837F7B
:10313000D7CF80914D038C7FA7CF80914C0382FB2A
:10314000992790F921E0922790FB82F990FB83F96F
:10315000C7CF80914D03982F909591708E7F892BCA
:1031600090FB81F991CF0E941D2090914C03892FF3
:1031700097FB87F98058B4CF81E0ACCF81E021CFB5
:10318000CF93DF93EB0186319C4511F50E949D257D
:103190009A81992399F08A7A91E009F490E09093CA
:1031A0000802811109C089E20E9478250E94E92560
:1031B00080E0DF91CF91089585E3F6CF80910802FA
:1031C000811104C089E20E947F25F0CF85E3FBCF07
:1031D00081E0EFCF62E070E08BE191E00C94C119E7
:1031E00062E070E08BE191E00C94CA190E94DE105D
:1031F000882361F085E192E00E94E41081E090E094
:103200000E94A31A892B11F40C94E1100895809167
:103210001402883039F460E085E192E00E941612D1
:10322000109214020895CF93DF93D62FC72F0E94D8
:10323000F61890E080E00E94A31A0097E9F4ED2FC1
:10324000FC2FDC01A25FBD4F2C91219301968630AB
:103250009105B9F70E94B2286E5F7F4F8F4F9F4F45
:1032600060930A0270930B0280930C0290930D02FC
:1032700081E0DF91CF91089580E0FBCFCF93DF9382
:10328000D62FC72F0E94071960910A0270910B0276
:1032900080910C0290910D020E949528ED2FFC2F39
:1032A00090E080E02191DC01A25FBD4F2C9301965C
:1032B00086309105B9F7DF91CF9108958EE14A9B51
:1032C00002C08150E1F74A9BFECF08955A9880E2F0
:1032D0008A95F1F75A9A0895FC013BE03A95F1F787
:1032E00020E090E080E031E040E14A95F1F7880F7E
:1032F0004A9B02C08160232742E04A95F1F7000013
:1033000040E14A95F1F79F5F6913EECF90E19A95FE
:10331000F1F799B132E03A95F1F7000040E14A95B2
:10332000F1F792FB992790F992272081920F9083D1
:103330000895EF92FF920F931F93CF93DF930F9215
:10334000CDB7DEB719828C017C01E60EF11C0E159B
:103350001F0561F481E09981911180E00F90DF9168
:10336000CF911F910F91FF90EF9008950E945E19E9
:1033700068E0CE0101960E946C19F80181938F01DB
:10338000E6CF90931F0280931E0260931D02529A13
:103390005A9A089590931F0280931E0260931D0213
:1033A00052985A9AEA9AE9E6F0E080818F7C80830D
:1033B00008956150770B91E001C0990F6A95EAF783
:1033C00020E031E0911108C0222391F05A9A80E266
:1033D0008A95F1F75A980895492F482339F05A9A57
:1033E000232740E24A95F1F79695ECCF5A98F9CF0A
:1033F0005A98EDCFFF920F931F93CF93DF93EC0179
:103400008C01060F111DC017D10731F4DF91CF9148
:103410001F910F91FF900895F9900E94661968E03E
:103420008F2D0E94D919EFCF1F920F920FB60F92D6
:1034300011240F931F932F933F934F935F936F9399
:103440007F938F939F93AF93BF93EF93FF93CF930C
:10345000DF930F92CDB7DEB719820E945E1967E045
:10346000CE0101960E946C19082F069506950695C7
:10347000982F92959570202F2570920F292F2370E9
:10348000969596958770920F891344C08981811112
:1034900041C080911D028017E8F120E12A95F1F7E3
:1034A0005A9A529A82E08A95F1F700C0A8E00A9FE2
:1034B000C001112400911E0210911F02080F191F54
:1034C0005A98F8016581662321F0868197810E94D0
:1034D000FA190E946619F0E1FA95F1F75A98529894
:1034E0005A9A20E12A95F1F7D80112966C91129719
:1034F000662331F113968D919C910E949919D80100
:10350000ED91FC91882311F088E001C082E0808376
:103510000E945E190F90DF91CF91FF91EF91BF91C3
:10352000AF919F918F917F916F915F914F913F915B
:103530002F911F910F910F900FBE0F901F90189514
:10354000ED91FC91E1CF0F931F93CF93DF932091E7
:103550001D02281719060CF471C08C0193E0000FAE
:10356000111F9A95E1F7C0911E02D0911F02C00F62
:10357000D11FF894529A5A9825E02A95F1F7000045
:10358000982F969595708570980F892F83709695D2
:103590009695980F092B0E94661900C067E0802F4E
:1035A0000E94D91980E18A95F1F752985A9A4A9B5C
:1035B00017C087E090E04A9915C06D81662321F11C
:1035C0008E819F810E94991981111EC0529A5A9A28
:1035D000E881F98182E08083789482E090E00DC0F8
:1035E00000C0E5CF019771F4529A5A9AE881F981A7
:1035F00081E08083789481E090E0DF91CF911F910A
:103600000F91089500C0D7CF0E945E1920E22A953D
:10361000F1F75A98529A80E18A95F1F76A81662308
:1036200021F08B819C810E94FA190E946619E88121
:10363000F9811082789490E080E0DFCF84E090E020
:10364000DCCF90932502809324020895E091240218
:10365000F0912502309721F00190F081E02D09943E
:1036600080E00895E0912402F0912502309799F0CE
:1036700020913701222359F020914C0327FF07C0E6
:10368000DC012C9111962C93119725E02C9302804C
:10369000F381E02D09940895E0912402F091250230
:1036A000309739F022E0DC012C930480F581E02D85
:1036B0000994089520912202309123022817390796
:1036C00071F09093230280932202E0912402F09102
:1036D0002502309721F00680F781E02D09940895A6
:1036E00020912002309121022817390771F0909320
:1036F000210280932002E0912402F091250230976C
:1037000021F00084F185E02D099408950E944D2850
:1037100060933702709338028093390290933A0293
:103720006093330270933402809335029093360293
:10373000089585B7806885BF85B7806885BF08957F
:10374000089508950C94A01B08950C94A41B0E9446
:10375000991B8CE496E20E94E7280E94A11B0C941E
:10376000A21B0C940A0A089508950E9438280E940A
:103770008C280E949D080E94E7130E9402290E9443
:10378000CD110C94A51BAF92BF92CF92DF92EF9216
:10379000FF920F931F93CF93DF93CDB7DEB72A9796
:1037A0000FB6F894DEBF0FBECDBF0E94B31B0E94C0
:1037B000B41B0E94510981110E94861B87E2A82E2A
:1037C00082E0B82E10E000E0C02E802F0E94760824
:1037D000E82EF501F1905F01F81609F44FC08091D1
:1037E000DD0281FD0E947C088F2D8E25D12CFF24C7
:1037F000F394982F9F21E9F10E94B11B882399F03F
:10380000DE82CF82EF2081E009F480E088870E9489
:1038100041288160782F9A8789874E815F816885EA
:103820008A850E94661CF801E95DFD4F8081F826BB
:10383000F0820E944B120E94AA0B0E94261B9091BC
:103840002602891791F10E94261B809326022A9650
:103850000FB6F894DEBF0FBECDBFDF91CF911F91A1
:103860000F91FF90EF90DF90CF90BF90AF900C94AE
:103870006F06D394FF0CF8E0DF12BBCF0F5F1F4F32
:103880000C30110509F0A0CF8FEF89838A831B824A
:103890000E9441288160782F9D838C8349815A81C1
:1038A0006B818D810E94661CC4CF2A960FB6F89456
:1038B000DEBF0FBECDBFDF91CF911F910F91FF9063
:1038C000EF90DF90CF90BF90AF900895DF92EF928E
:1038D000FF920F931F93CF93DF93CDB7DEB72B9754
:1038E0000FB6F894DEBF0FBECDBF7A878B87F42E5C
:1038F000052F162FE72ED82E61110E94BD251E829E
:103900001D827E2DEC82DD824F2D502F612F8D2D5B
:103910009E812B960FB6F894DEBF0FBECDBFDF9110
:10392000CF911F910F91FF90EF90DF900C94932215
:10393000FC01808191810C944A25CF93C82F882364
:1039400009F48BC08238C1F40E94261B81FD85C01A
:1039500089E30E9478250E94E9252FEF81EE94E00B
:10396000215080409040E1F700C0000089E30E94B0
:103970007F25CF910C94E9258338A1F40E94261B62
:1039800080FD6BC083E50E9478250E94E9252FEF1A
:1039900081EE94E0215080409040E1F700C00000AB
:1039A00083E5E5CF8438A1F40E94261B82FD55C033
:1039B00087E40E9478250E94E9252FEF81EE94E0AC
:1039C000215080409040E1F700C0000087E4CFCF55
:1039D0008CEF8C0F813A90F46C2F80912B01909199
:1039E0002C010E941327882329F08C2F0E947F2509
:1039F0000E94E9258C2F0E947825BBCF80E28C0F96
:103A0000883048F4C77081E001C0880FCA95EAF792
:103A10000E94A025AECFEBE5EC0FE33040F4F0E0E0
:103A2000E353FE4F808190E0CF910C945A1BE8E560
:103A3000EC0FE73150F4F0E0EE0FFF1FE156FE4FC0
:103A400080819181CF910C94701BCD3E30F08C2FF2
:103A50000E94BC0ACF910C948F0BCF9108958823BC
:103A600009F452C0823871F40E94261B81FF4CC0B9
:103A700089E30E9478250E94E92589E30E947F2539
:103A80000C94E925833859F40E94261B80FF3CC022
:103A900083E50E9478250E94E92583E5EFCF8438ED
:103AA00059F40E94261B82FF2FC087E40E947825CC
:103AB0000E94E92587E4E2CF9CEF980F913AF0F25B
:103AC00090E2980F983050F4877091E001C0990F00
:103AD0008A95EAF7892F0E94A625D2CF9BE5980FF9
:103AE000933020F490E080E00C945A1B98E5980FF6
:103AF000973120F490E080E00C94701B8D3E20F014
:103B00000E94160B0C948F0B08951F93CF93DF9395
:103B1000182FEB010E949D1C209731F4812FDF911B
:103B2000CF911F910C942F1D8FE99FE00197F1F722
:103B300000C000002197F0CF70E060E0893311F4FD
:103B400060E570E00C94851D882321F00E94A0257B
:103B50000C94E9250895882321F00E94A6250C9451
:103B6000E9250895BF92CF92DF92EF92FF920F93D3
:103B70001F93CF93DF936C01D62FC72FFC011281C7
:103B8000058102950F700E949625E82E8823A1F0EA
:103B9000E12E112389F08C2F807F803429F080E280
:103BA0008D0FE12C883040F082E00E9434260E9484
:103BB000962591E0E82EE926BC2EB2949FE0B9222A
:103BC000EB2DF0E0EE59FE4C0C94CB300C2F0F7027
:103BD000C07F11F00295007F1123A9F0002359F056
:103BE00080E28D0F883010F0D11109C0802F0E9423
:103BF000A0250E94E9258D2F0E949D1C14C0802FB6
:103C00000E94B025F6CF8D2F0E942F1D002359F062
:103C100080E28D0F883010F0D1112CC0802F0E94CF
:103C2000A6250E94E9252B2D2850330B2430310581
:103C300020F40E94261B0E946F06EE2009F49EC10C
:103C40000E94922580FD9AC1F60112820E948C2565
:103C50000E941724C6010E94DF1F0E948C25DF915D
:103C6000CF911F910F91FF90EF90DF90CF90BF9079
:103C70000C943824802F0E94B625D3CFFC2FFF70E0
:103C8000FF2EC07FC03219F0F29480EFF822DD23BE
:103C900069F0D13049F1112391F1002351F1F6017E
:103CA000858180FFA8CF8F70858323C0112381F089
:103CB000011106C00E94D0258F290E94A41DB3CFF8
:103CC0000130C1F70E94D0258F290E94D625ABCFA5
:103CD000011106C00E94DF258F2D0E94AB1DA3CFCE
:103CE000013009F4A0CFF6CF112329F0063008F0F7
:103CF0009ACF8F2DE2CF053008F095CFEDCF00237E
:103D000059F3D93349F4FFEF27EE33E0F150204067
:103D10003040E1F700C000008D2F0E942F1D83CF9F
:103D20008C2F86958695837069F0813009F07BCF62
:103D30008D2F9C2F9370111102C090E080E00E94A3
:103D4000701B71CF8D2F9C2F9370111102C090E0CA
:103D500080E00E945A1B67CF8D2F112329F00E940B
:103D6000BC0A0E948F0B5FCF0E94160BFACF8C2FDC
:103D7000837009F041C0111156CF4D2F42954695E1
:103D80004770440F440F0D2F0F7010E030E020E01B
:103D9000042E04C0000F111F221F331F0A94D2F7F4
:103DA00060E070E0CB01D4FF0FC06FE070E080E016
:103DB00090E004C0660F771F881F991F4A95D2F7BD
:103DC0006095709580959095C695C695C370602B4B
:103DD000712B822B932BC23049F058F4C13019F06B
:103DE0000E94C92320CF0E94B7231DCF0E94DB234E
:103DF0001ACF0E94B52317CF8695112311F08C2F6F
:103E00008170882309F40FCF4D2F42954695477056
:103E1000440F440F0D2F0F7010E030E020E0042E0F
:103E200004C0000F111F221F331F0A94D2F760E055
:103E300070E0CB01D4FF0FC06FE070E080E090E055
:103E400004C0660F771F881F991F4A95D2F76095A7
:103E5000709580959095C695C695C370602B712B13
:103E6000822B932BC23049F058F4C13019F00E94D4
:103E70008E24D9CE0E947C24D6CE0E94A024D3CEFC
:103E80000E94F123D0CECF70112329F08C2F0E94F5
:103E900017248D2F12CF8D2F0E94AB1D8C2F0E94C7
:103EA0003824C1CED23F89F160F4D03FC9F0D13F70
:103EB00029F1112309F442C001119DCE8C2F8F717D
:103EC00021C0D33F39F1D43FA1F7112369F1CF715C
:103ED0008C2F0E94172463E08C2F0E941F26A3CEF4
:103EE000112341F0053008F09ECE8C2F8F710E9477
:103EF0005B2499CE063008F096CEF7CF8C2F8F71C9
:103F0000112369F20E9417248ECE8C2F8F711123FA
:103F1000C9F3C5CF112329F08C2F8F710E94022481
:103F200082CE0E94FD237FCE81E00E9434260230A3
:103F300008F479CE82E00E94342675CE002359F031
:103F4000D93309F0E9CE8FEF97EEE3E0815090404E
:103F5000E040E1F7DFCE8C2F8F71A1CF4C2F4F7057
:103F60006D2FC6010E9477060E942D235CCE4C2F38
:103F70004F706D2FC6010E947A0655CEDF91CF910A
:103F80001F910F91FF90EF90DF90CF90BF90089519
:103F90000F931F93CF93DF93EC01688179818A811E
:103FA0000E9454258C010E94B2240E94B423B801BF
:103FB000CE01DF91CF911F910F910C94B21DCF9341
:103FC000DF93EC018B819C81892B29F08881998179
:103FD00089238F3F59F4DF91CF910895CE010E943C
:103FE000C81FCE01DF91CF910C945604CE010E94E0
:103FF000E3048111F3CF0E949625882361F38A811F
:10400000882349F382E0DF91CF910C94342690E02D
:1040100080E00E945A1B90E080E00E94701B0E948A
:10402000BD250E94CD250E94E9250E94B60C0C9466
:104030008F0B0E9486250C9407200E94AD250C94BE
:104040001920E92FE295EF70E250EE3070F4F0E0C5
:10405000EE58FE4C0C94CB30803F19F020F4883E93
:1040600020F481E00895843FE1F380E00895883EE4
:10407000C0F3813FD1F7F5CF93FB882780F90895EE
:104080000E944A250C942120CF93DF9300D000D0CA
:104090000F92CDB7DEB70F900F900F900F900F904B
:1040A000DF91CF910895CF93DF9300D000D000D05F
:1040B000CDB7DEB726960FB6F894DEBF0FBECDBFE4
:1040C000DF91CF9108951F93CF93DF93C0913C026E
:1040D00016E080913D028C1304C0DF91CF911F91B7
:1040E0000895D0E01C9FF0011D9FF00D1124E25CAB
:1040F000FD4F4081518162817381848195810E944D
:1041000053202196C770E5CF40916E0250916F0207
:1041100060917002709171028091720290917302AD
:104120000C9453201F93CF93DF9380917302807F71
:10413000A9F480917002882389F080913C02C0919B
:104140003D0260916E0270916F02A0917102B09178
:104150007202D62FD72316E0C81304C0DF91CF9187
:104160001F91089590E0109711F0DF3F19F4019628
:104170008770F2CF189F9001199F300D1124F9011B
:10418000E25CFD4F41814713F2CF40814613EFCFF0
:1041900042814111ECCF438154814A1B5B0B483C67
:1041A000510528F7809173028F70806180937302AC
:1041B000F901ED5BFD4F80818F70806180838EE619
:1041C00092E00E94DF1FDF91CF911F910C9463203A
:1041D000AF92BF92CF92DF92EF92FF920F931F9315
:1041E000CF93DF93CDB7DEB761970FB6F894DEBFFC
:1041F0000FBECDBF8C0185E0F801DE011D96019058
:104200000D928A95E1F7F80140815181E2808EE6B6
:10421000C82E82E0D82E60917102709172026115F1
:10422000710509F461C190916E0220916F02892F8E
:1042300082238F3F09F458C1A380B480F0907002AC
:10424000F501E61BF70BFF2009F4FCC08091730217
:10425000382F307FE83CF10508F0B2C0311179C049
:10426000FE2C251323C0941321C0E1101FC08F70B2
:104270008061809373020E948420C6010E94DF1F28
:1042800080917302F80185838F2D61960FB6F894A3
:10429000DEBF0FBECDBFDF91CF911F910F91FF9079
:1042A000EF90DF90CF90BF90AF900895AB2829F0AA
:1042B000842F85238F3F09F033C180E0F82FF17000
:1042C000DF2E80FF3CC080913C0220913D0236E011
:1042D000821315C04D875E878D859E850E944A2575
:1042E000292F22952F702230F0F0243018F59F707E
:1042F000F1F0F8019581907FD1F4D12C1EC090E0AF
:10430000389FF001399FF00D1124E25CFD4F61816F
:10431000651306C06081641303C062816E110FC013
:1043200001968770D5CF9F7011F0882331F3805E9E
:10433000883018F3C8010E94DF1FFD2CA5CFEE20A6
:1043400009F4A2CF80917302816080937302F12CF3
:104350009BCF251306C0941304C0F801EE2009F486
:104360008DC04D875E878D859E850E944020882365
:1043700019F1EE2009F180917302803270F02091E2
:104380006E0230916F0238872F831986BB86AA860A
:104390008C87CE0107960E94DF1F86E0F801AEE60B
:1043A000B2E001900D928A95E1F70E9492200E945E
:1043B0008420FF24F39468CFC8010E94DF1FF9CF47
:1043C000311113C07A2DB98AA88A6E2D89890E946D
:1043D00044208EE692E00E94DF1F86E0F6011192F3
:1043E0008A95E9F70E948420B2CF25130FC0941359
:1043F0000DC0E1100BC0F8018583C8010E94DF1FCA
:1044000086E0F60111928A95E9F73ECF4D875E87E7
:104410008D859E850E944020882371F2EE2061F2F6
:1044200080917302803208F4B8CF20916E023091EF
:104430006F023A8329831B82BD82AC828E83CE01B8
:104440000196A9CFE83CF10508F041C0FE2CEE2012
:1044500009F4B2CF25132AC0941328C080917302A7
:1044600080FD1BC0982F907FC1F0F8018583903F9D
:1044700031F0982F907F905F8F70892B8583C801D2
:104480000E94DF1F86E0F801AEE6B2E001900D92D7
:104490008A95E1F70E948420F7CE86E0F801AEE627
:1044A000B2E001900D928A95E1F7EECE4D875E87DE
:1044B0008D859E850E94402081116FCF809173026F
:1044C000816080937302C8010E94DF1FDDCE7A2DC8
:1044D000B98AA88A6E2D89890E94442086E0F60157
:1044E00011928A95E9F7D6CFEE2009F465CF4D8772
:1044F0005E878D859E850E944020F82E882309F4D2
:104500005BCF86E0F801AEE6B2E001900D928A95AD
:10451000E1F78EE692E00E94981C0E949220BACFAA
:1045200081E08E25CBCE1F93CF93DF93CDB7DEB73F
:104530002C970FB6F894DEBF0FBECDBF4F835887C0
:1045400069877A878B879C87CE0107960E94E8202F
:10455000882369F08A859B85892B39F04F8158859E
:10456000842F85238F3F09F071C016E05FC086E07D
:10457000FE013796DE01119601900D928A95E1F7C2
:104580008A859B85892B89F38F81988589238F3F25
:1045900061F320913D0230E0C901019687709927AF
:1045A00040913C024817190671F40E941D20109298
:1045B0003D0210923C0286E0EEE6F2E0DF011D9241
:1045C0008A95E9F7D2CF96E0929FD001939FB00DE4
:1045D0001124A25CBD4FFE01319601900D929A9577
:1045E000E1F780933D020E946320BFCF819FC0010D
:1045F0001124825C9D4F0E94E8208823E9F0E0911D
:104600003C021E9FF0011124E25CFD4F408151816C
:1046100062817381848195810E94532080913C0244
:1046200090E001968770992780933C0280913C022C
:1046300090913D028913DACF2C960FB6F894DEBF25
:104640000FBECDBFDF91CF911F91089569857A8507
:104650008B859C850E94532088CFEF92FF920F9309
:104660001F93CF93DF938C01892B81F0F12CEE24E3
:10467000E394E8012196F8018491843770F4843042
:1046800008F05FC08130B1F08230A1F1DF91CF91AD
:104690001F910F91FF90EF900895853709F44CC05A
:1046A00008F43DC09CE7980F903780F78F770E9401
:1046B0002F1D49C00E5F1F4FFE01849190E2980F9D
:1046C000983060F48770FE2D01C0FF0F8A95EAF7DD
:1046D0008F2F0E94C0250E94E92502C00E949D1CC8
:1046E0008F2D815030F2EFE9FFE03197F1F700C0F4
:1046F0000000F7CF0E5F1F4FFE01849190E2980FEC
:10470000983050F48770FE2D01C0FF0F8A95EAF7AC
:104710008F2F0E94C625DFCF0E942F1DE1CF0E5F95
:104720001F4FFE01C491C150D8F28FE99FE001975D
:10473000F1F700C00000F7CF0E5F1F4FFE01F490AD
:10474000CFCF0E949D1C8E01CBCF08950C94A52342
:104750000E94A6236093B4027093B5028093B602C0
:104760009093B7020C94072008950C94A8230F93FC
:104770001F930091B4021091B5022091B6023091BE
:10478000B702602B712B822B932B1F910F910C94EE
:10479000A8230F931F930091B4021091B5022091AA
:1047A000B6023091B70260237123822393231F91B5
:1047B0000F910C94A8230F931F930091B4021091B2
:1047C000B5022091B6023091B70260277127822787
:1047D00093271F910F910C94A8230C94A5230C945C
:1047E000ED230E94EF236093B0027093B102809397
:1047F000B2029093B3020C94072060E070E0CB010A
:104800000C94F1230F931F9341E050E060E070E0BF
:104810008A019B0104C0000F111F221F331F8A95BC
:10482000D2F7C901B8011F910F910C94F1230F9396
:104830001F9341E050E060E070E004C0440F551F5A
:10484000661F771F8A95D2F78091B0029091B102CE
:10485000A091B202B091B3028A019B01082B192BDF
:104860002A2B3B2BC901B8011F910F910C94F12306
:104870000F931F9341E050E060E070E004C0440FEC
:10488000551F661F771F8A95D2F7CB01BA01609535
:104890007095809590950091B0021091B102209191
:1048A000B2023091B30260237123822393231F91BC
:1048B0000F910C94F1230F931F9341E050E060E0BF
:1048C00070E004C0440F551F661F771F8A95D2F70A
:1048D0008091B0029091B102A091B202B091B30266
:1048E0008A019B01082719272A273B27C901B801FC
:1048F0001F910F910C94F1230F931F930091B0021D
:104900001091B1022091B2023091B302602B712B51
:10491000822B932B1F910F910C94F1230F931F93D4
:104920000091B0021091B1022091B2023091B30215
:1049300060237123822393231F910F910C94F12301
:104940000F931F930091B0021091B1022091B20217
:104950003091B30260277127822793271F910F910F
:104960000C94F1230895990F990F990F890F982F9F
:10497000977041E001C0440F9A95EAF786958695B5
:10498000869595E0899FF0011124EC58FD4F30E0A9
:1049900020E070E05191DF011197CB01022E02C09F
:1049A000969587950A94E2F78170819585278423EF
:1049B00085278C932F5F3F4F2530310559F7089598
:1049C000990F990F990F890F982F97708695869553
:1049D000869525E0829FF0011124EC58FD4F50E0B0
:1049E00040E080E0219130E0092E02C03695279505
:1049F0000A94E2F721703327042E01C0220F0A9493
:104A0000EAF7822B4F5F5F4F4530510559F7089504
:104A1000BF92CF92DF92EF92FF920F931F93CF93AB
:104A2000DF938C01C090B002D090B102E090B2024E
:104A3000F090B3028091B4029091B502A091B602B9
:104A4000B091B702C82AD92AEA2AFB2ACFE1D0E0DE
:104A5000BC2ED701C6010C2E04C0B695A79597951C
:104A600087950A94D2F780FD0EC0219788F7B12C64
:104A70008B2DDF91CF911F910F91FF90EF90DF90E1
:104A8000CF90BF900895B8018C2F0E9483060197A4
:104A900061F3EECFCF93DF93EC010E940825BE01B6
:104AA000DF91CF910C9483061F93CF93DF93EB019B
:104AB00090913B02992331F0CB01DF91CF911F916F
:104AC0000C944A25882379F0CB010E940825182FE1
:104AD000682FCE010E94B324BE01812FDF91CF91B8
:104AE0001F910C948306CB010E94E024182FF4CF71
:104AF000682F80912B0190912C010C949327682FA3
:104B000080912B0190912C010C949E2780912B0178
:104B100090912C010C94A9278091B80285958595D8
:104B2000859508958091B802877008959091B80294
:104B3000977081E009F480E008958091DC02089587
:104B40009091DC02892B8093DC02089580959091EE
:104B5000DC0298239093DC0208951092DC02089501
:104B60009091DB02892B8093DB02089580959091D0
:104B7000DB0298239093DB0208951092DB020895E4
:104B80009091DA02892B8093DA02089580959091B2
:104B9000DA0298239093DA0208951092DA020895C7
:104BA0008091B902089508950C94D3259091B9028B
:104BB000981721F08093B9020C94D4250895809120
:104BC000B902882329F01092B90280E00C94D42510
:104BD0000895E0912B01F0912C018091DC028083FB
:104BE000E0912B01F0912C0180819091DB02892BC7
:104BF0008083E0912B01F0912C0180819091DA0269
:104C0000892B80839091B902992381F0E0912B0147
:104C1000F0912C018081892B808380912B019091D0
:104C20002C010E94FF2681110E94DF2580912B011B
:104C300090912C010C94321B08950C941C2698E042
:104C4000899F90011124622B6093B8020E9417245F
:104C50008091B8028595859585950C941D261092B6
:104C6000B80280E00C941D269091B80280958923AB
:104C70008093B802282F277071F4282F082E000C7B
:104C8000330B9217130639F08595859585950E940B
:104C900038240C942F26089580E008956FEF7FEF5D
:104CA00090E080E00C94233190E080E00E94FF309F
:104CB00021E08B3E9E4F09F020E0822F089582E094
:104CC00090E00C94F13083E090E00C94F130CF93BD
:104CD00084E090E00E94F130C82F81E290E00E94D1
:104CE000F130982F8C2FCF910895CF93C92F682F33
:104CF00084E090E00E9405316C2F81E290E0CF913A
:104D00000C940531AB01BC018FE090E00C9417319D
:104D1000AB01BC0183E190E00C94173160E070E0DE
:104D2000CB010C94882660E070E0CB010E948226C3
:104D30000C948E266BEE7EEF90E080E00E94233193
:104D400060E082E090E00E94053160E083E090E066
:104D50000E9405311092B4021092B5021092B60270
:104D60001092B70260E084E090E00E94053160E0BC
:104D700081E290E00E94053160E085E090E00E94D1
:104D8000053160E086E090E00E9405316FEF87E03A
:104D900090E00E94053140E050E0BA0188E090E0E8
:104DA0000E94173160E08DE090E00E94053140E004
:104DB00050E0BA0188E190E00E94173160E087E19D
:104DC00090E00E94053140E050E0BA018CE190E0B3
:104DD0000E94173160E080E290E00E94053140E0DF
:104DE00050E0BA0188E190E00E9417310C949326BC
:104DF0000C949A26682F8EE090E00C940531FC010B
:104E0000329680913701882321F080914C039EE1F6
:104E100087FF96E080E0915008F4089521912223C5
:104E2000D1F38F5FF8CF662301F120913701222360
:104E3000F1F020914C0327FF1AC0462F4695469566
:104E400046954E3190F4677021E030E002C0220FA9
:104E5000331F6A95E2F7840F911DFC01828190E077
:104E60002823392381E0232B69F480E00895FC0195
:104E7000329608962191261721F0E817F907D1F705
:104E8000F4CF81E008959C01FC0132969FEF80E011
:104E90004191461751F09F3F19F4411101C0982FDD
:104EA0008F5F8630A9F79F3F09F40895290F311DC0
:104EB00097FD3A95F90162830895FC0132960896B0
:104EC0002191261303C0DF0111971C92E817F907FF
:104ED000B9F70895E62FE695E695E695EE3168F484
:104EE000E80FF92FF11D677021E030E001C0220FBB
:104EF0006A95EAF78281822B82830895E62FE695F0
:104F0000E695E695EE3170F4E80FF92FF11D677024
:104F100021E030E001C0220F6A95EAF720958281F6
:104F200028232283089520913701222329F02091FC
:104F30004C0327FD0C946A270C94432720913701DA
:104F4000222329F020914C0327FD0C947E270C94FA
:104F50005D27FC01329680913701882351F08091C2
:104F60004C0387FF06C08EE1DF011D928A95E9F7A9
:104F7000089586E0F9CF089508950C94BC27809198
:104F80005203843059F10E94BD2780E00E946F06D1
:104F90000E9415111092DE0288E190E020E40FB625
:104FA000F894A895809360000FBE2093600083B7AB
:104FB000817F846083BF83B7816083BF7894889545
:104FC00083B78E7F83BF0FB6F894A8958091600059
:104FD000886180936000109260000FBE089508956C
:104FE000CF930E94BB270E9451090E94EF27C0E087
:104FF0008C2F0E947608811105C0CF5FCC30C1F79D
:10500000CF91089581E0FCCF08950C9404280E946C
:105010001D200E94261B0E946F060E940D120C94F8
:1050200005281F921FB61F9211248F939F93AF9351
:10503000BF938091DE02811113C08091440390914F
:105040004503A0914603B09147034196A11DB11DB0
:105050008093440390934503A0934603B093470382
:10506000BF91AF919F918F911F901FBE1F90189578
:1050700082E084BD93E095BD9AEF97BD80936E006A
:1050800008952FB7F8948091440390914503A0911F
:105090004603B09147032FBF08952FB7F89460914E
:1050A00044037091450380914603909147032FBFBD
:1050B00008959C014FB7F894809144039091450363
:1050C000A0914603B09147034FBF821B930B0895F5
:1050D00078941F921FB61F9211248F939F93AF93C2
:1050E000BF938091440390914503A0914603B091F2
:1050F00047030196A11DB11D80934403909345037E
:10510000A0934603B0934703BF91AF919F918F91B6
:105110001F901FBE1F9018951092480310924903CC
:1051200010924A0310924B030895CF92DF92EF92B0
:10513000FF926B017C010E940A0A81110EC00E943D
:105140004D28C61AD70AE80AF90AC0924803D09235
:105150004903E0924A03F0924B03FF90EF90DF90F7
:10516000CF9008950F931F930E940A0A882321F07D
:105170001F910F910C944D280E944D2800914803D7
:105180001091490320914A0330914B03600F711F26
:10519000821F931F1F910F9108950E940A0A811187
:1051A0000C9441280E94B228CB01089587E797E725
:1051B000909301088093000888E19AE00FB6F89474
:1051C000A895809360000FBE90936000FFCF9093EE
:1051D000E1018093E00108950C94D4130E945109D9
:1051E0008FE39CE90197F1F700C000000E9451098C
:1051F00080E00E94760880FF04C00E94EC280C9496
:10520000D62808950E945426811102C00E94F826D3
:105210000E945F268093DD020E94672690934D03D3
:1052200080934C030E946326682F70E090E080E03A
:105230000E94B5236091B0027091B1028091B202D8
:105240009091B3020C94EF238091FF020895CF93C5
:10525000DF9300D00F92CDB7DEB790915203943018
:1052600011F589837B836A839093E9008FEF909196
:10527000E800815095FD06C095ED9A95F1F7000084
:105280008111F5CF8091E80085FF0DC050E040E02E
:1052900063E070E0CE0101960E94B52B8091E8009A
:1052A0008E778093E8000F900F900F90DF91CF9151
:1052B0000895BC0184E00C942729BC0183E00C9480
:1052C00027299C0184E08093E9009FEF8091E8000A
:1052D000915085FD06C085ED8A95F1F7000091118A
:1052E000F5CF8091E80085FF0CC050E040E066E01B
:1052F00070E0C9010E94B52B8091E8008E77809301
:10530000E8000895CF93DF93EC0180913701882363
:10531000B1F180914C0387FF32C060E284E080935A
:10532000E9008FEF9091E800815095FD06C095ED62
:105330009A95F1F700008111F5CF8091E80085FF83
:105340001BC08091370170E050E040E0811104C043
:1053500050E040E068E070E0CE010E94B52B809103
:10536000E8008E778093E80080E2FE01AFEDB2E0C6
:1053700001900D928A95E1F7DF91CF91089568E051
:1053800081E0CDCFCF93FC01603221F580915203B3
:10539000843001F5C091E900CF702091EC00922F8C
:1053A000917020FD90E8C92B82E08093E900809104
:1053B000E80080FF0CC050E040E060E270E0CF0108
:1053C0000E94B52B8091E8008E778093E800CF7023
:1053D000C093E900CF91089580915103811109C0D4
:1053E0000E94942D0E94F12D8091E20084608093B0
:1053F000E2000895109251030895089508950895C4
:1054000042E061EC81E00E94102D42E261EC84E018
:105410000E94102D42E261EC82E00E94102D42E2D7
:1054200060EC83E00C94102D80915403833009F4D8
:1054300061C030F48130D1F1823009F49DC008950B
:105440008A3009F489C08B3009F46FC0893009F0C3
:1054500050C080915303813209F04BC080915703B3
:1054600090915803009719F0029709F042C080917B
:10547000E800877F8093E8008091E80082FF35C0D4
:105480009091F3008091F200029729F48091F1004D
:105490008B7F813021F48091F1008093FF02809115
:1054A000E8008B778093E8000C94442D809153039F
:1054B000813AF9F48091E800877F8093E800809139
:1054C000570390915803892B61F460E28FED92E0CD
:1054D00070E00E94532C8091E8008B778093E80065
:1054E000089560E090E080E0F3CF80915203811155
:1054F000C3CF089580915303813AD9F78091570320
:1055000090915803892BA9F78091E800877F8093B9
:10551000E8008091E80080FFFCCF80913701809304
:10552000F1008091E8008E77BDCF809153038132E6
:1055300001F78091570390915803892BD1F6809100
:10554000E800877F8093E8000E94442D80915503F6
:10555000809337010C941D2080915303813249F6CA
:105560008091E800877F8093E8000E94442D80911D
:10557000560380930003089580915303813A09F004
:10558000B8CF8091E800877F8093E8008091E800A1
:1055900080FFFCCF80910003C2CFCDB7DEB7A097CC
:1055A0000FB6F894DEBF0FBECDBF84B7877F84BF30
:1055B0000FB6F894A8958091600088618093600090
:1055C000109260000FBE80E890E00FB6F8948093D0
:1055D0006100909361000FBE0E94A71B0E94942D52
:1055E0000E94F12D8091E20084608093E200789423
:1055F0000E947A300E94B51B8DE291E00E94211B2F
:1056000013E0809152038530C9F00E94C31B809142
:1056100052038430D1F00E94B31B0E94B41BF1CF1F
:105620000E94BF2780915003882341F00E94F027F9
:10563000882321F00E949F2B0E941D2080915203FD
:10564000853071F30E940728E0CF1093E900809124
:10565000E80082FFE0CF8091E80090E085FF09C07C
:1056600050E040E060E270E0CE0101960E94042C20
:1056700091E08091E8008B778093E800992359F2BC
:1056800060E2CE0101960E948C14C5CF0C94482B89
:10569000292F33272330310521F168F421303105DA
:1056A00009F443C02230310509F444C090E080E0A1
:1056B00030E020E026C02132310551F1223231059F
:1056C000A9F76330710590F7FB01EE0FFF1FED5254
:1056D000FE4F2081318160537E4FFB01808190E03D
:1056E00010C099278130910581F0009729F0029729
:1056F000E9F6E8EBF5E002C0E2EDF5E0849190E038
:105700009F01FA01318320830895E4ECF5E0F6CFA0
:105710006330710558F6660F771FFB01E752FE4FA5
:105720002081318189E090E0ECCF82E190E021E3BB
:1057300036E0E7CF8BE590E026ED35E0E2CF80E183
:1057400089BD82E189BD09B400FEFDCF8091D800FA
:105750008F7D8093D8008091E00082608093E0008C
:105760008091E00081FDFCCF0895AF92BF92CF926F
:10577000DF92FF920F931F93CF93DF936C01EB01A6
:105780008A010E94632DF82E811123C00115110595
:1057900039F0F80180819181C81BD90BC80ED91E40
:1057A000B12CA12C2097A9F08091E80085FD22C0A2
:1057B0008091E8008E778093E80001151105A1F033
:1057C000F80180819181A80EB91EB182A08285E086
:1057D000F82E8F2DDF91CF911F910F91FF90DF90C9
:1057E000CF90BF90AF9008950E94632D8823D1F28F
:1057F000F82EEFCFF60181916F018093F100219790
:10580000FFEFAF1ABF0ACECFAF92BF92CF92DF9217
:10581000FF920F931F93CF93DF936C01EB018A01EB
:105820000E94632DF82E811123C00115110539F056
:10583000F80180819181C81BD90BC80ED91EB12CEB
:10584000A12C2097A9F08091E80085FD22C08091CD
:10585000E8008B778093E80001151105A1F0F801AD
:1058600080819181A80EB91EB182A08285E0F82EB8
:105870008F2DDF91CF911F910F91FF90DF90CF90EF
:10588000BF90AF9008950E94632D8823D1F2F82E27
:10589000EFCF8091F100F60181936F012197FFEF27
:1058A000AF1ABF0ACECFFC018091590390915A03E1
:1058B00086179707A0F06115710529F49091E8000B
:1058C0009E779093E80090E06115710551F4911175
:1058D00008C08091E80082FF34C080E00895BC01D8
:1058E000F2CF809152038823C1F18530C1F18091BC
:1058F000E80083FD30C08091E80082FDEACF80910E
:10590000E80080FFE1CF8091F3002091F200382F72
:105910006115710519F02830310558F091E02830F3
:10592000310509F090E02091E8002E772093E800FF
:10593000CBCF81918093F100615071092F5F3F4F70
:10594000E7CF80915203882341F0853041F0809168
:10595000E80083FFBECF81E0089582E0089583E0F0
:105960000895FC018091590390915A038617970777
:10597000A0F06115710529F48091E8008E7780937D
:10598000E80090E06115710551F4911108C0809113
:10599000E80082FF35C080E00895BC01F2CF80911D
:1059A00052038823C9F18530C9F18091E80083FD55
:1059B00031C08091E80082FDEACF8091E80080FF4D
:1059C000E1CF8091F3002091F200382F611571052D
:1059D00019F02830310558F091E02830310509F0F0
:1059E00090E08091E8008E778093E800CBCF84919F
:1059F0008093F1003196615071092F5F3F4FE6CFE0
:105A000080915203882341F0853041F08091E80075
:105A100083FFBDCF81E0089582E0089583E008957B
:105A2000982F973028F08F708093E90081E00895D7
:105A30009093E900242F762F50E0981731F0709161
:105A4000EC002091ED005091F00021FD02C09F5F1D
:105A5000E8CF3091EB003E7F3093EB003091ED00CA
:105A60003D7F3093ED003091EB0031603093EB00DF
:105A70007093EC002093ED005093F0002091EE0025
:105A800027FDE5CF80E008958091530387FF13C081
:105A90008091E80082FF06C08091E8008B778093B8
:105AA000E80004C0809152038111F2CF08958091E3
:105AB00052038823D9F38091E80080FFF8CF8091CA
:105AC000E8008E77ECCF2091E4003091E50095E678
:105AD000A9012091EC00822F817020FF06C08091E7
